:100000000C9434000C9449000C9449000C94490061
:100010000C9449000C9449000C9449000C9449003C
:100020000C9449000C9449000C9449000C9449002C
:100030000C9449000C9449000C9449000C9449001C
:100040000C9449000C9449000C9449000C9449000C
:100050000C9449000C9449000C9449000C944900FC
:100060000C9449000C94490011241FBECFEFD8E036
:10007000DEBFCDBF11E0A0E0B1E0E2EEF5E002C0EE
:1000800005900D92A838B107D9F70E94DC010C94B5
:10009000EF020C940000ECEBF0E0108294EA908305
:1000A00090819923ECF79091B900987F9830A1F452
:1000B0008093BB0084E88093BC00ECEBF0E080818F
:1000C0008823ECF79091B900987F983139F081E05E
:1000D000903429F480E0089581E0089580E0089547
:1000E0008093BB0084E88093BC00ECEBF0E080815F
:1000F0008823ECF79091B900987F81E0983209F459
:1001000080E008950F931F939C01FB0164E670E06B
:100110000E94C7028B014CE94603C001479F900D26
:100120001124820F931F6AE070E00E94C702C80189
:10013000C09695838483CB01C0969383828344E6E3
:10014000409FC001419F900D1124AB01440F551FEA
:10015000660F771F660F771F660F771F640F751F77
:10016000680F791F261B370B205D3F4F318320839B
:100170001F910F9108958EEF0E94700081E50E94FB
:10018000700008958EEF0E94700085E40E94700058
:1001900080E40E94700008958EEF0E94700085E454
:1001A0000E94700084E10E94700008958EEF0E940A
:1001B000700085E40E94700084E50E94700008953C
:1001C000EF92FF920F931F93CF9361157105A1F0EA
:1001D0007B01082F192FF801C1918F018C2F0E94EC
:1001E000700083EC99E00197F1F700C000008C2FBC
:1001F00090E0E816F90679F7CF911F910F91FF90E3
:10020000EF900895CF93DF93CDB7DEB7EF970FB69A
:10021000F894DEBF0FBECDBF80E1E8E4F1E0DE017F
:10022000119601900D928A95E1F782E1E8E5F1E0FF
:10023000DE01519601900D928A95E1F78FE0EAE692
:10024000F1E0DE01939601900D928A95E1F78EE040
:10025000E9E7F1E0DE01D29601900D928A95E1F78F
:1002600080E50E944B008FE097E20197F1F700C014
:1002700000000E94BB0061E270E0CE0101960E9486
:10028000E0008FE097E20197F1F700C000000E94C4
:10029000C20064E670E0CE0141960E94E0008FE06B
:1002A00097E20197F1F700C000000E94CC0062E7DE
:1002B00070E0CE0183960E94E0008FE097E2019704
:1002C000F1F700C000000E94D6006EE270E0CE019F
:1002D000C2960E94E0009FEF24E38CE09150204002
:1002E0008040E1F700C000000E94BB0084E98093D9
:1002F000BC00EF960FB6F894DEBF0FBECDBFDF9106
:10030000CF9108951092C50083E38093C400E0EC80
:10031000F0E08081826080838EE08093C200089547
:10032000E0ECF0E080818823ECF78091C60090E05B
:10033000089598E09093C100E0ECF0E0908195FF83
:10034000FDCF8093C6001092C1000895CF93DF9334
:10035000C82FD62F80E40E94990180E40E94990161
:1003600080E40E94990181E20E9499018D2F0E94F0
:1003700099018C2F0E9499018D2F8C0F0E94990159
:10038000DF91CF9108950E949001C797E1F70E94F5
:1003900090010895CF93DF93D82F0E949001C82F2A
:1003A0000E9490011092C100DC0FD81302C08C2F64
:1003B00000C0DF91CF910895CF93DF9300D01F92BB
:1003C000CDB7DEB78DEF8093B8000E9482010E9406
:1003D0000201C12CD12C0F2EF1ECEF2EF12CF02DBF
:1003E00010E10F2EFCEBAF2EB12CF02D04E9F7013C
:1003F00010830E94C3018133D9F50E94CA01982E4F
:10040000C82ED12C1C82BE016F5F7F4FC6010E9497
:10041000820080E50E944B008FE097E20197F1F7A0
:1004200000C000006EE370E086E391E00E94E0000F
:100430008B810E9470008A810E94700089810E94D5
:100440007000F5010083FDE3CF16D10484F289EF3B
:1004500090E00197F1F700C0000061E3892D0E9450
:10046000A601EFE0F7E23197F1F700C00000BFCF3F
:100470008233E1F50E94CA01982E1C82BE016F5F93
:100480007F4F90E00E94820080E50E944B008FE049
:1004900097E20197F1F700C000000E94C2006EE3EE
:1004A00070E084E291E00E94E0008B810E94700085
:1004B0008A810E94700089810E947000F50100838A
:1004C000C6018497039708F492CF89EF90E00197D3
:1004D000F1F700C0000062E3892D0E94A601EFE061
:1004E000F7E23197F1F700C0000081CF833331F597
:1004F0000E94CA011C82BE016F5F7F4F90E00E9484
:10050000820080E50E944B008FE097E20197F1F7AF
:1005100000C000000E94CC006EE370E082E191E038
:100520000E94E0008B810E9470008A810E9470000E
:1005300089810E947000F501008359CF843309F04E
:1005400056CF0E94CA011C82BE016F5F7F4F90E0B0
:100550000E94820080E50E944B008FE097E20197A5
:10056000F1F700C000000E94D6006EE370E080E06A
:1005700091E00E94E0008B810E9470008A810E94BD
:10058000700089810E947000F501008330CF97FBD5
:10059000072E16F4009407D077FD09D00E94DB02E5
:1005A00007FC05D03EF4909581959F4F0895709576
:1005B00061957F4F0895AA1BBB1B51E107C0AA1F7D
:1005C000BB1FA617B70710F0A61BB70B881F991FF4
:1005D0005A95A9F780959095BC01CD010895F8949E
:0205E000FFCF4B
:1005E200534250204C6566742020286D6D4867295F
:1005F2003E0053425020526967687420286D6D484E
:1006020067293E00426F64792054656D702028434B
:10061200292020203E004865617274205261746571
:100622002842504D29203E0057656C636F6D65204E
:10063200746F204E41442100596F757220506572CB
:10064200736F6E616C697A6564004865616C746889
:10065200204D6F6E69746F7200627920416D696C12
:0806620079612044442E0000E0
:00000001FF
