S0150000416C61726D2053746174696F6E2E7372656320
S11300000C9434000C9449000C9449000C9449005D
S11300100C9449000C9449000C9449000C94490038
S11300200C9449000C9449000C9449000C94490028
S11300300C9449000C9449000C9449000C94490018
S11300400C9449000C9449000C9449000C94490008
S11300500C9449000C9449000C9449000C944900F8
S11300600C9449000C94490011241FBECFEFD8E032
S1130070DEBFCDBF11E0A0E0B1E0E0E0F8E002C0F7
S113008005900D92AA36B107D9F70E94FC020C9490
S1130090FE030C940000672B09F073C08A309105AD
S11300A011F4289808958B30910511F42998089536
S11300B08C30910511F42A9808958D30910511F42E
S11300C02B9808958E30910511F42C9808958F3053
S11300D0910511F42D9808958031910511F42E980D
S11300E008958131910511F42F9808958431910573
S11300F011F4409808958531910511F441980895BB
S11301008631910511F4429808958731910511F4CF
S1130110439808958831910511F4449808958931DC
S1130120910511F4459808958A31910511F4469882
S113013008958E31910511F4589808958F319105E1
S113014011F4599808958032910511F45A9808953C
S11301508132910511F45B9808958232910511F46E
S11301605C9808958332910511F45D980895843262
S1130170910511F45E980895859709F073C05F980E
S113018008958A30910511F4289A08958B309105C9
S113019011F4299A08958C30910511F42A9A08953E
S11301A08D30910511F42B9A08958E30910511F438
S11301B02C9A08958F30910511F42D9A0895803169
S11301C0910511F42E9A08958131910511F42F9A15
S11301D008958431910511F4409A0895853191056B
S11301E011F4419A08958631910511F4429A0895C3
S11301F08731910511F4439A08958831910511F4DA
S1130200449A08958931910511F4459A08958A31E3
S1130210910511F4469A08958E31910511F4589A76
S113022008958F31910511F4599A089580329105FA
S113023011F45A9A08958132910511F45B9A089544
S11302408232910511F45C9A08958332910511F478
S11302505D9A08958432910511F45E9A0895859704
S113026009F45F9A0895CF93C82F80FF07C061E017
S113027070E084E190E00E944B0006C060E070E012
S113028084E190E00E944B00C1FF07C061E070E090
S113029085E190E00E944B0006C060E070E085E1DB
S11302A090E00E944B00C2FF07C061E070E086E16D
S11302B090E00E944B0006C060E070E086E190E0B0
S11302C00E944B00C3FF07C061E070E087E190E04B
S11302D00E944B0006C060E070E087E190E00E945D
S11302E04B00CF910895CF93C82F60E070E08BE06E
S11302F090E00E944B008C2F0E94330161E070E07B
S11303008CE090E00E944B0083EC99E00197F1F7B8
S113031000C0000060E070E08CE090E00E944B00C0
S113032089EF90E00197F1F700C00000CF910895A4
S113033080E00E94730181E00E9473010895CF93CD
S1130340C62F813059F480E8860F82958F700E9401
S113035073018C2F8F700E9473010CC0823051F492
S113036080EC860F82958F700E9473018C2F8F70A2
S11303700E947301CF91089580E00E94330187EABF
S113038091E60197F1F700C0000083E00E94730139
S113039083ED90E30197F1F700C0000083E00E9431
S11303A073018BE69BE60197F1F700C0000083E040
S11303B00E94730182E00E94730182E00E94730133
S11303C088E00E94730180E00E9473018CE00E9427
S11303D0730180E00E94730186E00E947301089516
S11303E0CF93C82F61E070E08BE090E00E944B0057
S11303F08C2F82958F700E94330161E070E08CE055
S113040090E00E944B0083EC99E00197F1F700C063
S1130410000060E070E08CE090E00E944B0083EC10
S113042099E00197F1F700C000008C2F8F700E94B3
S1130430330161E070E08CE090E00E944B0083ECBB
S113044099E00197F1F700C0000060E070E08CE0F3
S113045090E00E944B0083EC99E00197F1F700C013
S11304600000CF910895CF93DF93EC018881882316
S113047031F021960E94F00189918111FBCFDF9127
S1130480CF91089581E00E9473018CE00E94730172
S1130490089581E00E94730188E00E947301089529
S11304A00F931F939C01FB0164E670E00E94D60346
S11304B08B014CE94603C001479F900D1124820F24
S11304C0931F6AE070E00E94D603C801C09695832A
S11304D08483CB01C0969383828344E6409FC0010A
S11304E0419F900D1124AB01440F551F660F771FD8
S11304F0660F771F660F771F640F751F680F791FCC
S1130500261B370B205D3F4F318320831F910F91B2
S1130510089561E081E00E949F0180E091E00E94E3
S1130520330287EA91E60197F1F700C0000061E029
S113053082E00E949F0180E191E00E9433029FEFDC
S113054024E38CE0915020408040E1F700C000009B
S11305500E949801089560E081E00E949F018EE16D
S113056091E00E9433028FE493EC0197F1F700C00D
S113057000000E9498018EE191E00E9433020E94E3
S113058098018FE493EC0197F1F700C000008EE12D
S113059091E00E94330208951092C50083E3809392
S11305A0C400E0ECF0E080818260808380E180938D
S11305B0C1008EE08093C2000895E0ECF0E08081F9
S11305C08823ECF78091C60008950E94DD028132F1
S11305D0E1F70E94DD020895CF93DF93D82F0E94A4
S11305E0DD02C82F0E94DD02DC0F8D1302C08C2FA8
S11305F000C0DF91CF910895CF93DF9300D000D056
S113060000D0CDB7DEB78FEF84B987B90E94BC01A3
S11306100E9498010E94CC020E9489020E94E50275
S1130620813359F50E94EC0218861F82BE016F5F68
S11306307F4F90E00E9450020E94AB020E949801FA
S113064060E082E00E949F0180E391E00E94330217
S11306508D810E94F0018B810E94F00189810E94AA
S1130660F0012FE78AE196E0215080409040E1F7C5
S113067000C000000E949801D1CF823359F50E9436
S1130680EC0218861F82BE016F5F7F4F90E00E94CC
S113069050020E94AB020E94980160E082E00E9436
S11306A09F018EE391E00E9433028D810E94F0014C
S11306B08B810E94F00189810E94F0012FE78AE179
S11306C096E0215080409040E1F700C000000E9475
S11306D09801A4CF823659F50E94EC0218861F8235
S11306E0BE016F5F7F4F90E00E9450020E94AB02F8
S11306F00E94980160E082E00E949F018CE491E0F6
S11307000E9433028D810E94F0018B810E94F001CE
S113071089810E94F0012FE78AE196E02150804010
S11307209040E1F700C000000E94980177CF803329
S113073009F074CF0E94EC0218861F82BE016F5F1D
S11307407F4F90E00E9450020E94AB020E949801E9
S113075060E082E00E949F0189E591E00E943302FB
S11307600FE010E083E294EF0197F1F700C000007E
S11307700E94490201501109A9F70FE010E083E239
S113078094EF0197F1F700C000000E94420201506B
S11307901109A9F79FE72AE186E0915020408040A3
S11307A0E1F700C000000E94980138CF97FB072EA4
S11307B016F4009407D077FD09D00E94EA0307FCE1
S11307C005D03EF4909581959F4F0895709561955D
S11307D07F4F0895AA1BBB1B51E107C0AA1FBB1F73
S11307E0A617B70710F0A61BB70B881F991F5A95B9
S11307F0A9F780959095BC01CD010895F894FFCF99
S113080057656C636F6D6520746F204E4144210001
S113081020627920416D696C7961204444005761FC
S1130820726E696E6721205761726E696E6721006E
S11308304865617274205261746520203E00426FE5
S113084064792054656D7020203E2000534250206E
S11308504469666620203E2000212121546573747A
S10D086020416C61726D212121001A
S9030000FC
