S01800004865616C7468204D6F6E69746F7220502E737265633E
S11300000C9434000C9449000C9449000C9449005D
S11300100C9449000C9449000C9449000C94490038
S11300200C9449000C9449000C9449000C94490028
S11300300C9449000C9449000C9449000C94490018
S11300400C9449000C9449000C9449000C94490008
S11300500C9449000C9449000C9449000C944900F8
S11300600C9449000C94490011241FBECFEFD8E032
S1130070DEBFCDBF11E0A0E0B1E0E0E3F9E002C0F3
S113008005900D92AE36B107D9F70E9430010C9459
S113009096040C940000ECEBF0E0108294EA908358
S11300A090819923ECF79091B900987F9830A1F44E
S11300B08093BB0084E88093BC00ECEBF0E080818B
S11300C08823ECF79091B900987F983139F081E05A
S11300D0903429F480E0089581E0089580E0089543
S11300E08093BB0084E88093BC00ECEBF0E080815B
S11300F08823ECF79091B900987F81E0983209F455
S113010080E0089580E480937C0087E880937A00FF
S113011008950F931F939C01FB0164E670E00E9415
S11301206E048B014CE94603C001479F900D1124D6
S1130130820F931F6AE070E00E946E04C801C096AB
S113014095838483CB01C0969383828344E6409F46
S1130150C001419F900D1124AB01440F551F660F40
S1130160771F660F771F660F771F640F751F680F61
S1130170791F261B370B205D3F4F318320831F914E
S11301800F9108958EEF0E94700081E50E94700027
S113019008958EEF0E94700085E40E94700080E450
S11301A00E9470000895EF92FF920F931F93CF93D4
S11301B061157105A1F07B01082F192FF801C19178
S11301C08F018C2F0E94700083EC99E00197F1F766
S11301D000C000008C2F90E0E816F90679F7CF9163
S11301E01F910F91FF90EF9008951092C50083E343
S11301F08093C400E0ECF0E08081826080838EE034
S11302008093C20008955F9A00005F9898E09093ED
S1130210C100E0ECF0E0908195FFFDCF8093C60033
S11302201092C1000895CF93DF93C82FD62F80E496
S11302300E94030180E40E94030180E40E94030100
S113024087E30E9403018D2F0E9403018C2F0E94DB
S113025003018D2F8C0F0E940301DF91CF9108952C
S1130260CF93DF9300D000D000D0CDB7DEB70E948B
S113027082008DEF8093B8000E94F500209A579A6F
S113028080E50E944B002FE788E391E021508040F5
S11302909040E1F700C000000E94C20061E270E0FB
S11302A082E191E00E94D300EFE0F7E23197F1F7A9
S11302B000C000000E94C9006EE270E080E091E09E
S11302C00E94D300FFEF24E38CE0F15020408040F3
S11302D0E1F700C0000084E98093BC00F12CE12C1C
S11302E0D12CC12C01E010E00F2EFCEBAF2EB12C71
S11302F0F02D0F2EF4E99F2EF02D812C712C612C02
S1130300512C02C000E010E018861F82BE016F5F0E
S11303107F4FC8010E94890080E50E944B00EFE0F6
S1130320F7E23197F1F700C000000E94C2006EE3CB
S113033070E08BE591E00E94D3008D810E947000F3
S113034083EC99E00197F1F700C000008B810E94D3
S11303507000E3ECF9E03197F1F700C00000898107
S11303600E947000FFE32DE083E0F15020408040C4
S1130370E1F700C00000F501908289EF90E0019759
S1130380F1F700C0000061E3802F0E941301EFE049
S1130390F7E23197F1F700C0000020E030E04CECC8
S11303A052E46F2D7E2D8D2D9C2D0E94E40220E0C1
S11303B030E040E05FE30E94010420E030E040E8E8
S11303C05FE30E94E502F62EE72ED82EC92E20E028
S11303D030E044E352E40E945103811104C0F82C3C
S11303E0E72CD62CC52C18861F826F2D7E2D8D2DC3
S11303F09C2D0E945603DC01CB01BE016F5F7F4F31
S11304000E94890080E50E944B008FE097E20197EB
S1130410F1F700C000000E94C9006EE370E089E4B7
S113042091E00E94D3008D810E947000E3ECF9E01A
S11304303197F1F700C000008B810E94700083ECBB
S113044099E00197F1F700C0000089810E947000D3
S11304509FE3EDE0F3E09150E040F040E1F700C0AD
S11304600000F501908289EF90E00197F1F700C058
S113047000006F2D7E2D8D2D9C2D0E945D03862FF7
S113048062E30E941301EFE0F7E23197F1F700C055
S1130490000018861F82BE016F5F7F4F84E890E0E2
S11304A00E94890080E50E944B008FE097E201974B
S11304B0F1F700C000000E94C2006EE370E087E321
S11304C091E00E94D3008D810E947000E3ECF9E07A
S11304D03197F1F700C000008B810E94700083EC1B
S11304E099E00197F1F700C0000089810E94700033
S11304F09FE3EDE0F3E09150E040F040E1F700C00D
S11305000000F501908289EF90E00197F1F700C0B7
S1130510000063E384E80E941301EFE0F7E23197FF
S1130520F1F700C0000018861F82BE016F5F7F4F85
S113053082E890E00E94890080E50E944B008FE0F1
S113054097E20197F1F700C000000E94C9006EE332
S113055070E085E291E00E94D3008D810E947000DA
S1130560E3ECF9E03197F1F700C000008B810E94C1
S1130570700083EC99E00197F1F700C000008981D5
S11305800E9470009FE3EDE0F3E09150E040F04002
S1130590E1F700C00000F501908289EF90E0019737
S11305A0F1F700C0000064E382E80E941301EFE069
S11305B0F7E23197F1F700C000000F5F1F4F043BD3
S11305C0110509F0A1CE9ECE5058BB27AA270E9440
S11305D0FC020C94C7030E94B90338F00E94C003C4
S11305E020F039F49F3F19F426F40C94B6030EF46A
S11305F0E095E7FB0C94B003E92F0E94D80358F36D
S1130600BA17620773078407950720F079F4A6F5F3
S11306100C94FA030EF4E0950B2EBA2FA02D0B01C7
S1130620B90190010C01CA01A0011124FF27591B33
S113063099F0593F50F4503E68F11A16F040A22F39
S1130640232F342F4427585FF3CF469537952795AA
S1130650A795F0405395C9F77EF41F16BA0B620BA9
S1130660730B840BBAF09150A1F0FF0FBB1F661FF0
S1130670771F881FC2F70EC0BA0F621F731F841F33
S113068048F4879577956795B795F7959E3F08F059
S1130690B0CF9395880F08F09927EE0F979587951B
S11306A008950E948C0308F481E008950E945D037C
S11306B06894B1110C94FB0308950E94E00388F040
S11306C09F5798F0B92F9927B751B0F0E1F0660F12
S11306D0771F881F991F1AF0BA95C9F714C0B13053
S11306E091F00E94FA03B1E008950C94FA03672F85
S11306F0782F8827B85F39F0B93FCCF38695779582
S11307006795B395D9F73EF490958095709561956A
S11307107F4F8F4F9F4F0895990F0008550FAA0BD5
S1130720E0E8FEEF16161706E807F907C0F0121600
S11307301306E407F50798F0621B730B840B950B03
S113074039F40A2661F0232B242B252B21F4089558
S11307500A2609F4A140A6958FEF811D811D0895F5
S113076097F99F6780E870E060E008959FEF80EC60
S1130770089500240A941616170618060906089503
S113078000240A9412161306140605060895092E69
S11307900394000C11F4882352F0BB0F40F4BF2BD8
S11307A011F460FF04C06F5F7F4F8F4F9F4F089518
S11307B057FD9058440F551F59F05F3F71F047950E
S11307C0880F97FB991F61F09F3F79F087950895F3
S11307D0121613061406551FF2CF4695F1DF08C012
S11307E0161617061806991FF1CF8695710561052F
S11307F008940895E894BB2766277727CB0197F9D7
S113080008950E9414040C94C7030E94B90338F09D
S11308100E94C00320F0952311F00C94B0030C94B3
S1130820B60311240C94FB030E94D80370F3959F24
S1130830C1F3950F50E0551F629FF001729FBB27D3
S1130840F00DB11D639FAA27F00DB11DAA1F649F6F
S11308506627B00DA11D661F829F2227B00DA11D22
S1130860621F739FB00DA11D621F839FA00D611DA8
S1130870221F749F3327A00D611D231F849F600DC9
S1130880211D822F762F6A2F11249F5750409AF0F2
S1130890F1F088234AF0EE0FFF1FBB1F661F771F7E
S11308A0881F91505040A9F79E3F510580F00C9449
S11308B0B0030C94FB035F3FE4F3983ED4F38695B6
S11308C077956795B795F795E7959F5FC1F7FE2BE9
S11308D0880F911D9695879597F9089597FB072E94
S11308E016F4009407D077FD09D00E94820407FC17
S11308F005D03EF4909581959F4F0895709561952C
S11309007F4F0895AA1BBB1B51E107C0AA1FBB1F41
S1130910A617B70710F0A61BB70B881F991F5A9587
S1130920A9F780959095BC01CD010895F894FFCF67
S113093020202020627920416D696C796120444433
S11309402E0020202057656C636F6D6520746F2026
S11309504E41442100534250204C656674202028A7
S11309606D6D4867293E0053425020526967687490
S113097020286D6D4867293E00426F6479205465D4
S11309806D70202028432920203E00486561727440
S11109902052617465202842504D293E00001B
S9030000FC
