:100000000C9434000C9449000C9449000C94490061
:100010000C9449000C9449000C9449000C9449003C
:100020000C9449000C9449000C9449000C9449002C
:100030000C9449000C9449000C9449000C9449001C
:100040000C9449000C9449000C9449000C9449000C
:100050000C9449000C9449000C9449000C944900FC
:100060000C9449000C94490011241FBECFEFD8E036
:10007000DEBFCDBF11E0A0E0B1E0E0E0FCE002C0F7
:1000800005900D92A237B107D9F70E9445010C9453
:10009000FE050C940000ECEBF0E0108294EA9083F3
:1000A00090819923ECF79091B900987F9830A1F452
:1000B0008093BB0084E88093BC00ECEBF0E080818F
:1000C0008823ECF79091B900987F983139F081E05E
:1000D000903429F480E0089581E0089580E0089547
:1000E0008093BB0084E88093BC00ECEBF0E080815F
:1000F0008823ECF79091B900987F81E0983209F459
:1001000080E0089580E480937C0087E880937A0003
:100110000895ECE7F0E09081987F90839081892B9F
:100120008083EAE7F0E0808180648083808186FDBF
:10013000FDCF809178009091790008950F931F93DF
:100140009C01FB0164E670E00E94D6058B014CE93E
:100150004603C001479F900D1124820F931F6AE050
:1001600070E00E94D605C801C09695838483CB01B8
:10017000C0969383828344E6409FC001419F900DC7
:100180001124AB01440F551F660F771F660F771FB1
:10019000660F771F640F751F680F791F261B370BBB
:1001A000205D3F4F318320831F910F9108958EEF83
:1001B0000E94700081E50E94700008958EEF0E94F9
:1001C000700085E40E94700080E40E947000089531
:1001D000EF92FF920F931F93CF9361157105A1F0DA
:1001E0007B01082F192FF801C1918F018C2F0E94DC
:1001F000700083EC99E00197F1F700C000008C2FAC
:1002000090E0E816F90679F7CF911F910F91FF90D2
:10021000EF9008951092C50083E38093C400E0EC52
:10022000F0E08081826080838EE08093C200089538
:100230005F9A00005F9898E09093C100E0ECF0E0D6
:10024000908195FFFDCF8093C6001092C100089564
:10025000CF93DF93C82FD62F80E40E94180180E44B
:100260000E94180180E40E94180187E30E9418018F
:100270008D2F0E9418018C2F0E9418018D2F8C0F3A
:100280000E941801DF91CF910895CF93DF9300D0A2
:1002900000D000D0CDB7DEB70E9482008DEF8093F2
:1002A000B8000E940A01209A579A80E50E944B00EC
:1002B0002FE788E391E0215080409040E1F700C0B3
:1002C00000000E94D70061E270E08EE591E00E949C
:1002D000E800EFE0F7E23197F1F700C000000E947C
:1002E000DE006EE270E08CE491E00E94E800FFEF37
:1002F00024E38CE0F15020408040E1F700C0000092
:1003000084E98093BC00612C512C412C312C0F2EA0
:10031000FCEB8F2E912CF02D0F2EF4E97F2EF02D7B
:10032000A62CB52CC42CD32CE12CF12C82E00E94FD
:100330008900873292400CF1289A00E010E082E0B8
:100340000E9489000F5F1F4F87329240C4F72FEF42
:10035000E21AF20AB801110F880B990B0E94DD0412
:100360009B01AC016A2D7B2D8C2D9D2D0E94C70316
:10037000A62EB72EC82ED92E01C028988BE0E816DD
:10038000F104A4F220E030E04FEA54E46A2D7B2D22
:100390008C2D9D2D0E9433049B01AC0160E070E028
:1003A00080E89FE30E94330420E030E040E752E41D
:1003B0000E9469050E94A5046B017C0118861F82BA
:1003C000BE016F5F7F4FC6010E949E0080E50E94C4
:1003D0004B00EFE0F7E23197F1F700C000000E9418
:1003E000D7006EE370E08AE391E00E94E800C60166
:1003F000C2978338910578F063E570E084E291E07C
:100400000E94E8008FE097E20197F1F700C000003A
:10041000F401708220C08D810E94700083EC99E00D
:100420000197F1F700C000008B810E947000E3EC9F
:10043000F9E03197F1F700C0000089810E94700057
:10044000FFE32DE083E0F15020408040E1F700C061
:100450000000F401708289EF90E00197F1F700C08D
:10046000000061E38C2D0E942801E7EAF1E6319754
:10047000F1F700C0000081E00E948900BC0180E02B
:1004800090E00E94DB0420E030E04CEC52E40E945B
:10049000C60320E030E040E05FE30E9469056B01A5
:1004A0007C0118861F820E94A504DC01CB01BE01DD
:1004B0006F5F7F4F0E949E0080E50E944B008FE09F
:1004C00097E20197F1F700C000000E94DE006EE3A2
:1004D00070E088E291E00E94E8008D810E94700047
:1004E000E3ECF9E03197F1F700C000008B810E9446
:1004F000700083EC99E00197F1F700C0000089815A
:100500000E9470009FE3EDE0F3E09150E040F04086
:10051000E1F700C00000F401708289EF90E00197DC
:10052000F1F700C00000C701B6010E94AC04862F9D
:1005300064E50E942801EFE0F7E23197F1F700C08F
:100540000000A62CB52CC42CD32CE12CF12C82E07D
:100550000E94890087329240FCF000E010E080E0C9
:100560000E9489000F5F1F4F87329240C4F78FEFC0
:10057000E81AF80AB801110F880B990B0E94DD04E4
:100580009B01AC016A2D7B2D8C2D9D2D0E94C703F4
:10059000A62EB72EC82ED92E9BE0E916F104BCF288
:1005A00020E030E040E251E46A2D7B2D8C2D9D2D22
:1005B0000E9433042CEC3FE748E85EEB0E9469059B
:1005C00020E030E040E253E40E94C7030E94A5040B
:1005D000162F972F18861F82BE016F5F7F4F812FC6
:1005E0000E949E0080E50E944B00EFE0F7E2319709
:1005F000F1F700C000000E94D7006EE370E082E1D6
:1006000091E00E94E8008D810E94700083EC99E0E7
:100610000197F1F700C000008B810E947000E3ECAD
:10062000F9E03197F1F700C0000089810E94700065
:10063000FFE32DE083E0F15020408040E1F700C06F
:100640000000F401708289EF90E00197F1F700C09B
:10065000000062E4812F0E942801EFE0F7E2319769
:10066000F1F700C00000A62CB52CC42CD32CE12C33
:10067000F12C82E00E94890087329240FCF000E079
:1006800010E083E00E9489000F5F1F4F8732924085
:10069000C4F78FEFE81AF80AB801110F880B990B0D
:1006A0000E94DD049B01AC016A2D7B2D8C2D9D2DBC
:1006B0000E94C703A62EB72EC82ED92E9BE0E9169E
:1006C000F104BCF220E030E040E251E46A2D7B2DE1
:1006D0008C2D9D2D0E9433042CEC3FE748E85EEB07
:1006E0000E94690520E030E04CE053E40E94C7031B
:1006F0000E94A504162F972F18861F82BE016F5FD8
:100700007F4F812F0E949E0080E50E944B00EFE00A
:10071000F7E23197F1F700C000000E94DE006EE3BF
:1007200070E080E091E00E94E8008D810E947000FE
:1007300083EC99E00197F1F700C000008B810E94E3
:100740007000E3ECF9E03197F1F700C00000898117
:100750000E947000FFE32DE083E0F15020408040D4
:10076000E1F700C00000F401708289EF90E001978A
:10077000F1F700C0000062E6812F0E942801EFE03F
:10078000F7E23197F1F700C00000CACD5058BB27FF
:10079000AA270E94DE030C942F050E94210538F041
:1007A0000E94280520F039F49F3F19F426F40C9498
:1007B0001E050EF4E095E7FB0C941805E92F0E9446
:1007C000400558F3BA17620773078407950720F0AE
:1007D00079F4A6F50C9462050EF4E0950B2EBA2F71
:1007E000A02D0B01B90190010C01CA01A001112437
:1007F000FF27591B99F0593F50F4503E68F11A16E3
:10080000F040A22F232F342F4427585FF3CF469573
:1008100037952795A795F0405395C9F77EF41F1695
:10082000BA0B620B730B840BBAF09150A1F0FF0F5F
:10083000BB1F661F771F881FC2F70EC0BA0F621F4B
:10084000731F841F48F4879577956795B795F7953B
:100850009E3F08F0B0CF9395880F08F09927EE0FD0
:100860009795879508950E9447040C942F050E9440
:10087000280558F00E94210540F029F45F3F29F037
:100880000C94180551110C9463050C941E050E94DC
:10089000400568F39923B1F3552391F3951B550B4C
:1008A000BB27AA2762177307840738F09F5F5F4F43
:1008B000220F331F441FAA1FA9F335D00E2E3AF082
:1008C000E0E832D091505040E695001CCAF72BD09A
:1008D000FE2F29D0660F771F881FBB1F26173707EB
:1008E0004807AB07B0E809F0BB0B802DBF01FF271D
:1008F00093585F4F3AF09E3F510578F00C941805DD
:100900000C9463055F3FE4F3983ED4F386957795A6
:100910006795B795F7959F5FC9F7880F911D9695D5
:10092000879597F90895E1E0660F771F881FBB1F31
:10093000621773078407BA0720F0621B730B840BDE
:10094000BA0BEE1F88F7E09508950E94AC046894F6
:10095000B1110C94630508950E94480588F09F57D3
:1009600098F0B92F9927B751B0F0E1F0660F771FD3
:10097000881F991F1AF0BA95C9F714C0B13091F0C9
:100980000E946205B1E008950C946205672F782FEC
:100990008827B85F39F0B93FCCF38695779567958E
:1009A000B395D9F73EF490958095709561957F4FFA
:1009B0008F4F9F4F0895E89409C097FB3EF49095A0
:1009C0008095709561957F4F8F4F9F4F9923A9F028
:1009D000F92F96E9BB279395F695879577956795B7
:1009E000B795F111F8CFFAF4BB0F11F460FF1BC0FB
:1009F0006F5F7F4F8F4F9F4F16C0882311F096E98E
:100A000011C0772321F09EE8872F762F05C066233B
:100A100071F096E8862F70E060E02AF09A95660FF4
:100A2000771F881FDAF7880F9695879597F90895AD
:100A300097F99F6780E870E060E008959FEF80EC91
:100A4000089500240A941616170618060906089534
:100A500000240A9412161306140605060895092E9A
:100A60000394000C11F4882352F0BB0F40F4BF2B09
:100A700011F460FF04C06F5F7F4F8F4F9F4F089549
:100A800057FD9058440F551F59F05F3F71F047953F
:100A9000880F97FB991F61F09F3F79F08795089524
:100AA000121613061406551FF2CF4695F1DF08C043
:100AB000161617061806991FF1CF86957105610560
:100AC00008940895E894BB2766277727CB0197F908
:100AD00008950E947C050C942F050E94210538F092
:100AE0000E94280520F0952311F00C9418050C9411
:100AF0001E0511240C9463050E94400570F3959F18
:100B0000C1F3950F50E0551F629FF001729FBB2704
:100B1000F00DB11D639FAA27F00DB11DAA1F649FA0
:100B20006627B00DA11D661F829F2227B00DA11D53
:100B3000621F739FB00DA11D621F839FA00D611DD9
:100B4000221F749F3327A00D611D231F849F600DFA
:100B5000211D822F762F6A2F11249F5750409AF023
:100B6000F1F088234AF0EE0FFF1FBB1F661F771FAF
:100B7000881F91505040A9F79E3F510580F00C947A
:100B800018050C9463055F3FE4F3983ED4F3869513
:100B900077956795B795F795E7959F5FC1F7FE2B1A
:100BA000880F911D9695879597F9089597FB072EC5
:100BB00016F4009407D077FD09D00E94EA0507FCDF
:100BC00005D03EF4909581959F4F0895709561955D
:100BD0007F4F0895AA1BBB1B51E107C0AA1FBB1F73
:100BE000A617B70710F0A61BB70B881F991F5A95B9
:100BF000A9F780959095BC01CD010895F894FFCF99
:100C0000534250204C6566742020286D6D4867293A
:100C10003E0053425020526967687420286D6D4829
:100C200067293E0052505300426F64792054656D2D
:100C300070202028432920203E00486561727420DE
:100C400052617465202842504D293E00202020200A
:100C5000627920416D696C79612044442E00202026
:100C60002057656C636F6D6520746F204E41442181
:020C7000000082
:00000001FF
