:100000000C9434000C9449000C9449000C94490061
:100010000C9449000C9449000C9449000C9449003C
:100020000C9449000C9449000C9449000C9449002C
:100030000C9449000C9449000C9449000C9449001C
:100040000C9449000C9449000C9449000C9449000C
:100050000C9449000C9449000C9449000C944900FC
:100060000C9449000C94490011241FBECFEFD8E036
:10007000DEBFCDBF11E0A0E0B1E0E8EDF5E002C0E9
:1000800005900D92AE36B107D9F70E9445010C9448
:10009000EA020C940000ECEBF0E0108294EA90830A
:1000A00090819923ECF79091B900987F9830A1F452
:1000B0008093BB0084E88093BC00ECEBF0E080818F
:1000C0008823ECF79091B900987F983139F081E05E
:1000D000903429F480E0089581E0089580E0089547
:1000E0008093BB0084E88093BC00ECEBF0E080815F
:1000F0008823ECF79091B900987F81E0983209F459
:1001000080E0089580E480937C0087E880937A0003
:100110000895ECE7F0E09081987F90839081892B9F
:100120008083EAE7F0E0808180648083808186FDBF
:10013000FDCF809178009091790008950F931F93DF
:100140009C01FB0164E670E00E94C2028B014CE955
:100150004603C001479F900D1124820F931F6AE050
:1001600070E00E94C202C801C09695838483CB01CF
:10017000C0969383828344E6409FC001419F900DC7
:100180001124AB01440F551F660F771F660F771FB1
:10019000660F771F640F751F680F791F261B370BBB
:1001A000205D3F4F318320831F910F9108958EEF83
:1001B0000E94700081E50E94700008958EEF0E94F9
:1001C000700085E40E94700080E40E947000089531
:1001D000EF92FF920F931F93CF9361157105A1F0DA
:1001E0007B01082F192FF801C1918F018C2F0E94DC
:1001F000700083EC99E00197F1F700C000008C2FAC
:1002000090E0E816F90679F7CF911F910F91FF90D2
:10021000EF9008951092C50083E38093C400E0EC52
:10022000F0E08081826080838EE08093C200089538
:100230005F9A00005F9898E09093C100E0ECF0E0D6
:10024000908195FFFDCF8093C6001092C100089564
:10025000CF93DF93C82FD62F80E40E94180180E44B
:100260000E94180180E40E94180187E30E9418018F
:100270008D2F0E9418018C2F0E9418018D2F8C0F3A
:100280000E941801DF91CF910895CF93DF9300D0A2
:1002900000D000D0CDB7DEB70E9482008DEF8093F2
:1002A000B8000E940A01209A579A80E50E944B00EC
:1002B0002FE788E391E0215080409040E1F700C0B3
:1002C00000000E94D70061E270E082E191E00E94AC
:1002D000E800EFE0F7E23197F1F700C000000E947C
:1002E000DE006EE270E080E091E00E94E800FFEF47
:1002F00024E38CE0F15020408040E1F700C0000092
:1003000084E98093BC0001E010E00F2EFCEBCF2EBF
:10031000D12CF02D0F2EF4E9FF2EF02D02C000E0BD
:1003200010E018861F82BE016F5F7F4FC8010E94D8
:100330009E0080E50E944B00EFE0F7E23197F1F775
:1003400000C000000E94D7006EE370E08BE591E0F2
:100350000E94E8008D810E94700083EC99E0019773
:10036000F1F700C000008B810E947000E3ECF9E01F
:100370003197F1F700C0000089810E947000FFE30F
:100380002DE083E0F15020408040E1F700C0000004
:10039000F601F08289EF90E00197F1F700C00000CC
:1003A00061E3802F0E942801EFE0F7E23197F1F737
:1003B00000C0000081E00E94890018861F82BE01F3
:1003C0006F5F7F4F85E290E00E949E0080E50E9473
:1003D0004B008FE097E20197F1F700C000000E9408
:1003E000DE006EE370E089E491E00E94E8008D8118
:1003F0000E947000E3ECF9E03197F1F700C00000D3
:100400008B810E94700083EC99E00197F1F700C0A6
:10041000000089810E9470009FE3EDE0F3E09150BD
:10042000E040F040E1F700C00000F601F08289EF03
:1004300090E00197F1F700C0000064E585E20E94BA
:100440002801EFE0F7E23197F1F700C000001886CD
:100450001F82BE016F5F7F4F84E890E00E949E0084
:1004600080E50E944B008FE097E20197F1F700C012
:1004700000000E94D7006EE370E087E391E00E94E5
:10048000E8008D810E947000E3ECF9E03197F1F70C
:1004900000C000008B810E94700083EC99E00197FE
:1004A000F1F700C0000089810E9470009FE3EDE039
:1004B000F3E09150E040F040E1F700C00000F601A9
:1004C000F08289EF90E00197F1F700C0000062E44C
:1004D00084E80E942801EFE0F7E23197F1F700C0CD
:1004E000000018861F82BE016F5F7F4F82E890E098
:1004F0000E949E0080E50E944B008FE097E20197EA
:10050000F1F700C000000E94DE006EE370E085E2BB
:1005100091E00E94E8008D810E947000E3ECF9E018
:100520003197F1F700C000008B810E94700083ECCE
:1005300099E00197F1F700C0000089810E947000E6
:100540009FE3EDE0F3E09150E040F040E1F700C0C0
:100550000000F601F08289EF90E00197F1F700C00A
:10056000000062E682E80E942801EFE0F7E231979E
:10057000F1F700C000000F5F1F4F043B110509F0A9
:10058000D0CECDCE97FB072E16F4009407D077FD82
:1005900009D00E94D60207FC05D03EF490958195C3
:1005A0009F4F0895709561957F4F0895AA1BBB1BBF
:1005B00051E107C0AA1FBB1FA617B70710F0A61B63
:1005C000B70B881F991F5A95A9F780959095BC0184
:0805D000CD010895F894FFCF5E
:1005D80020202020627920416D696C796120444493
:1005E8002E0020202057656C636F6D6520746F2086
:1005F8004E41442100534250204C65667420202807
:100608006D6D4867293E00534250205269676874EF
:1006180020286D6D4867293E00426F647920546533
:100628006D70202028432920203E0048656172749F
:0E0638002052617465202842504D293E00007A
:00000001FF
