:100000000C9434000C9449000C9449000C94490061
:100010000C9449000C9449000C9449000C9449003C
:100020000C9449000C9449000C9449000C9449002C
:100030000C9449000C9449000C9449000C9449001C
:100040000C9449000C9449000C9449000C9449000C
:100050000C9449000C9449000C9449000C944900FC
:100060000C9449000C94490011241FBECFEFD8E036
:10007000DEBFCDBF11E0A0E0B1E0E0EDF5E002C0F1
:1000800005900D92A838B107D9F70E94D1010C94C0
:10009000E6020C940000ECEBF0E0108294EA90830E
:1000A00090819923ECF79091B900987F9830A1F452
:1000B0008093BB0084E88093BC00ECEBF0E080818F
:1000C0008823ECF79091B900987F983139F081E05E
:1000D000903429F480E0089581E0089580E0089547
:1000E0008093BB0084E88093BC00ECEBF0E080815F
:1000F0008823ECF79091B900987F81E0983209F459
:1001000080E008959C01FB0164E670E00E94BE025D
:10011000462FC90154E6659F8019910911246AE0B0
:1001200070E00E94BE0280E3840F828380E3860F2A
:100130008183205D84E6489F20191124660F862F55
:10014000880F880F680F261B208308958EEF0E946A
:10015000700081E50E94700008958EEF0E9470008B
:1001600085E40E94700080E00E94700008958EEF88
:100170000E94700085E40E94700080E40E9470007C
:1001800008958EEF0E94700085E40E94700084E163
:100190000E94700008958EEF0E94700085E40E9416
:1001A000700084E50E9470000895EF92FF920F9313
:1001B0001F93CF9361157105A1F07B01082F192FB3
:1001C000F801C1918F018C2F0E94700083EC99E09F
:1001D0000197F1F700C000008C2F90E0E816F906B7
:1001E00079F7CF911F910F91FF90EF900895CF93E2
:1001F000DF93CDB7DEB7EF970FB6F894DEBF0FBE33
:10020000CDBF80E1E8E4F1E0DE01119601900D92AE
:100210008A95E1F782E1E8E5F1E0DE01519601908F
:100220000D928A95E1F78FE0EAE6F1E0DE01939620
:1002300001900D928A95E1F78EE0E9E7F1E0DE01A9
:10024000D29601900D928A95E1F780E50E944B00CD
:100250008FE097E20197F1F700C000000E94A6002E
:1002600061E270E0CE0101960E94D5008FE097E236
:100270000197F1F700C000000E94B70064E670E04B
:10028000CE0141960E94D5008FE097E20197F1F7E9
:1002900000C000000E94C10062E770E0CE018396BA
:1002A0000E94D5008FE097E20197F1F700C00000AF
:1002B0000E94CB006EE270E0CE01C2960E94D50093
:1002C0009FEF24E38CE0915020408040E1F700C094
:1002D00000000E94A60084E98093BC00EF960FB650
:1002E000F894DEBF0FBECDBFDF91CF91089510927D
:1002F000C50083E38093C400E0ECF0E0808182607D
:1003000080838EE08093C2000895E0ECF0E080816D
:100310008823ECF78091C60090E0089598E09093D0
:10032000C100E0ECF0E0908195FFFDCF8093C60026
:100330001092C1000895CF93DF93C82FD62F80E489
:100340000E948E0180E40E948E0180E40E948E0152
:1003500081E20E948E018D2F0E948E018C2F0E94BF
:100360008E018D2F8C0F0E948E01DF91CF91089509
:100370000E948501C797E1F70E9485010895CF93F8
:10038000DF93D82F0E948501C82F0E94850110920B
:10039000C100DC0FD81302C08C2F00C0DF91CF91B9
:1003A0000895CF93DF9300D01F92CDB7DEB78DEFC6
:1003B0008093B8000E9477010E94F700C12CD12CD5
:1003C0000F2EF1ECEF2EF12CF02D10E10F2EFCEBA7
:1003D000AF2EB12CF02D04E9F70110830E94B80173
:1003E0008133E9F50E94BF01982EC82ED12C1C82C2
:1003F000BE016F5F7F4FC6010E94820080E50E94B0
:100400004B008FE097E20197F1F700C000000E94D7
:10041000AD006EE370E086E391E00E94D5008B8131
:100420000E9470008A810E94700089810E94700081
:10043000F5010083FDE3CF16D10474F289EF90E05B
:100440000197F1F700C0000061E3892D0E949B0134
:10045000EFE0F7E23197F1F700C00000BDCF84353F
:10046000E1F50E94BF01982E1C82BE016F5F7F4F95
:1004700090E00E94820080E50E944B008FE097E2AE
:100480000197F1F700C000000E94B7006EE370E032
:1004900084E291E00E94D5008B810E9470008A81E5
:1004A0000E94700089810E947000F5010083C601DE
:1004B0008497039708F490CF89EF90E00197F1F7C4
:1004C00000C0000064E5892D0E949B01EFE0F7E287
:1004D0003197F1F700C000007FCF823431F50E94E0
:1004E000BF011C82BE016F5F7F4F90E00E948200BF
:1004F00080E50E944B008FE097E20197F1F700C082
:1005000000000E94C1006EE370E082E191E00E9471
:10051000D5008B810E9470008A810E9470008981C1
:100520000E947000F501008357CF823609F054CF46
:100530000E94BF011C82BE016F5F7F4F90E00E944E
:10054000820080E50E944B008FE097E20197F1F76F
:1005500000C000000E94CB006EE370E080E091E0FC
:100560000E94D5008B810E9470008A810E947000D9
:1005700089810E947000F50100832ECF97FB072E22
:1005800016F4009407D077FD09D00E94D20207FC30
:1005900005D03EF4909581959F4F08957095619593
:1005A0007F4F0895AA1BBB1B51E107C0AA1FBB1FA9
:1005B000A617B70710F0A61BB70B881F991F5A95EF
:1005C000A9F780959095BC01CD010895F894FFCFCF
:1005D000534250204C6566742020286D6D48672971
:1005E0003E0053425020526967687420286D6D4860
:1005F00067293E00426F64792054656D702028435E
:10060000292020203E004865617274205261746583
:100610002842504D29203E0057656C636F6D652060
:10062000746F204E41442100596F757220506572DD
:10063000736F6E616C697A6564004865616C74689B
:10064000204D6F6E69746F7200627920416D696C24
:0806500079612044442E0000F2
:00000001FF
