S0140000486F6D652053746174696F6E2E7372656385
S11300000C9434000C9449000C9449000C9449005D
S11300100C9449000C9449000C9449000C94490038
S11300200C9449000C9449000C9449000C94490028
S11300300C9449000C9449000C9449000C94490018
S11300400C9449000C9449000C9449000C94490008
S11300500C9449000C9449000C9449000C944900F8
S11300600C9449000C94490011241FBECFEFD8E032
S1130070DEBFCDBF11E0A0E0B1E0E8E5F6E002C0EC
S113008005900D92A838B107D9F70E94CC010C94C1
S11300902A030C940000ECEBF0E0108294EA9083C5
S11300A090819923ECF79091B900987F9830A1F44E
S11300B08093BB0084E88093BC00ECEBF0E080818B
S11300C08823ECF79091B900987F983139F081E05A
S11300D0903429F480E0089581E0089580E0089543
S11300E08093BB0084E88093BC00ECEBF0E080815B
S11300F08823ECF79091B900987F81E0983209F455
S113010080E00895282FFB0139E2839F312D1124CB
S113011032953F7090E044E6349F80199109112490
S11301206AE070E00E94020380E3830F828380E32D
S1130130860F8183205D84E6389F20191124660F81
S1130140862F880F880F680F261B208308958EEF53
S11301500E94700081E50E94700008958EEF0E9455
S1130160700085E40E94700080E00E947000089591
S11301708EEF0E94700085E40E94700080E40E946B
S1130180700008958EEF0E94700085E40E94700054
S113019084E10E94700008958EEF0E94700085E44F
S11301A00E94700084E50E9470000895EF92FF920F
S11301B00F931F93CF936115710571F07B01082F85
S11301C0192FF801C1918F018C2F0E9470008C2F80
S11301D090E0E816F906A9F7CF911F910F91FF90CF
S11301E0EF900895CF93DF93CDB7DEB7EF970FB6B7
S11301F0F894DEBF0FBECDBF80E1E8E4F1E0DE019C
S1130200119601900D928A95E1F782E1E8E5F1E01B
S1130210DE01519601900D928A95E1F78FE0EAE6AE
S1130220F1E0DE01939601900D928A95E1F78EE05C
S1130230E9E7F1E0DE01D29601900D928A95E1F7AB
S113024080E50E944B008FE097E20197F1F700C030
S113025000000E94A70061E270E0CE0101960E94B6
S1130260D6008FE097E20197F1F700C000000E94EA
S1130270B80064E670E0CE0141960E94D6008FE09B
S113028097E20197F1F700C000000E94C20062E704
S113029070E0CE0183960E94D6008FE097E201972A
S11302A0F1F700C000000E94CC006EE270E0CE01C5
S11302B0C2960E94D6009FEF24E38CE09150204028
S11302C08040E1F700C000000E94A70084E9809309
S11302D0BC00EF960FB6F894DEBF0FBECDBFDF9122
S11302E0CF9108951092C50083E38093C400E0EC9D
S11302F0F0E08081826080838EE08093C200089564
S1130300E0ECF0E080818823ECF78091C60090E077
S1130310089598E09093C100E0ECF0E0908195FF9F
S1130320FDCF8093C6001092C1000895CF93DF9350
S1130330C82FD62F80E40E94890180E40E9489019D
S113034080E40E94890181E20E9489018D2F0E942C
S113035089018C2F0E9489018D2F8C0F0E948901A5
S1130360DF91CF9108950E948001C797E1F70E9421
S113037080010895CF93DF93D82F0E948001C82F66
S11303800E9480011092C100DC0FD81302C08C2F90
S113039000C0DF91CF910895CF93DF9300D01F92D7
S11303A0CDB7DEB78DEF8093B8000E9472010E9432
S11303B0F20000E010E0A12CB12C612C0F2EF1EC26
S11303C0EF2EF12CF02D6894772474F80F2EFCEBAB
S11303D0CF2ED12CF02D0F2EF4E95F2EF02DF70146
S11303E070820E94B3018133D9F50E94BA01682E4C
S11303F01C82BE016F5F7F4F0E94820080E50E94D5
S11304004B008FE097E20197F1F700C000000E94D3
S1130410AE006EE370E086E391E00E94D6008B812B
S11304200E9470008A810E94700089810E9470007D
S1130430F601508284EC860D833308F4CAC089EF38
S113044090E00197F1F700C0000061E3862D0E945F
S11304509601EFE0F7E23197F1F700C00000B9C070
S11304608435D9F50E94BA01982E1C82BE016F5FB3
S11304707F4F0E94820080E50E944B008FE097E24C
S11304800197F1F700C000000E94B8006EE370E02D
S113049084E291E00E94D6008B810E9470008A81E0
S11304A00E94700089810E947000F60150828CEDD8
S11304B0860D833008F48DC089EF90E00197F1F741
S11304C000C0000064E5892D0E949601EFE0F7E288
S11304D03197F1F700C000007CC0823439F50E94E6
S11304E0BA01A82EB12C1C82BE016F5F7F4F0E94FF
S11304F0820080E50E944B008FE097E20197F1F7BC
S113050000C000000E94C2006EE370E082E191E04E
S11305100E94D6008B810E9470008A810E94700024
S113052089810E947000F601508253C0823609F01E
S113053050C00E94BA01882E912C1C82BE016F5FAC
S11305407F4F0E94820080E50E944B008FE097E27B
S11305500197F1F700C000000E94CC006EE370E048
S113056080E091E00E94D6008B810E9470008A8115
S11305700E94700089810E947000F6015082C501BA
S1130580881999098A3091057CF0E9EFF0E03197F8
S1130590F1F700C0000062E40E9496018FE097E248
S11305A00197F1F700C00000C4018A199B098A3041
S11305B091057CF0E9EFF0E03197F1F700C000001D
S11305C062E60E9496018FE097E20197F1F700C07E
S11305D000000F5F1F4F0A30110509F000CFE9EF4B
S11305E0F0E03197F1F700C0000060E380E00E9482
S11305F096018FE097E20197F1F700C0000000E058
S113060010E0EDCE97FB072E16F4009407D077FD8B
S113061009D00E94160307FC05D03EF490958195FD
S11306209F4F0895709561957F4F0895AA1BBB1B3A
S113063051E107C0AA1FBB1FA617B70710F0A61BDE
S1130640B70B881F991F5A95A9F780959095BC01FF
S10B0650CD010895F894FFCFD9
S1130658534250204C6566742020286D6D486729E4
S11306683E0053425020526967687420286D6D48D3
S113067867293E00426F64792054656D70202843D1
S1130688292020203E0048656172742052617465F7
S11306982842504D29203E0057656C636F6D6520D4
S11306A8746F204E41442100596F75722050657251
S11306B8736F6E616C697A6564004865616C74680F
S11306C8204D6F6E69746F7200627920416D696C98
S10B06D879612044442E000066
S9030000FC
